:100000000C942A000C9434000C9434000C943400AA
:100010000C9434000C9434000C9434000C94340090
:100020000C9434000C9434000C9434000C94340080
:100030000C9434000C9434000C9434000C94340070
:100040000C9434000C9434000C9434000C94340060
:100050000C94340011241FBECFE5D8E0DEBFCDBF25
:100060000E9480000C94AC000C94000077234CF1AB
:100070004BB321E030E0F90102C0EE0FFF1F8A957B
:10008000E2F7CF01242F2E2B2BBB0BC0FFEF24E375
:100090003CE0F15020403040E1F700C000006150EA
:1000A00071091616170694F39BB3809589238BBBB1
:1000B0004FEF84E39CE0415080409040E1F700C066
:1000C0000000089561E070E00E943600089563E04A
:1000D00070E00E94360008952FEF8EE994E22150DF
:1000E00080409040E1F700C0000008952FEF82E7C4
:1000F00095E5215080409040E1F700C00000089550
:100100008FEF8ABB1BBA80E090E00E94620081E022
:1001100090E00E9462000E94760080E090E00E94E1
:10012000620081E090E00E94620082E090E00E9424
:1001300062000E946C0080E090E00E94620081E01A
:1001400090E00E9462000E946C0080E090E00E94BB
:0C01500067000E947600D7CFF894FFCF24
:00000001FF
